{
  "_format": "hh-sol-artifact-1",
  "contractName": "VotingContract",
  "sourceName": "contracts/VotingContract.sol",
  "abi": [
    {
      "inputs": [],
      "stateMutability": "nonpayable",
      "type": "constructor"
    },
    {
      "anonymous": false,
      "inputs": [
        {
          "indexed": true,
          "internalType": "uint256",
          "name": "candidateId",
          "type": "uint256"
        },
        {
          "indexed": false,
          "internalType": "string",
          "name": "name",
          "type": "string"
        },
        {
          "indexed": false,
          "internalType": "address",
          "name": "candidateAddress",
          "type": "address"
        }
      ],
      "name": "CandidateRegistered",
      "type": "event"
    },
    {
      "anonymous": false,
      "inputs": [
        {
          "indexed": true,
          "internalType": "uint256",
          "name": "candidateId",
          "type": "uint256"
        },
        {
          "indexed": true,
          "internalType": "address",
          "name": "voter",
          "type": "address"
        }
      ],
      "name": "VoteCast",
      "type": "event"
    },
    {
      "anonymous": false,
      "inputs": [
        {
          "indexed": true,
          "internalType": "uint256",
          "name": "voterId",
          "type": "uint256"
        },
        {
          "indexed": false,
          "internalType": "string",
          "name": "name",
          "type": "string"
        },
        {
          "indexed": false,
          "internalType": "address",
          "name": "voterAddress",
          "type": "address"
        }
      ],
      "name": "VoterAuthorized",
      "type": "event"
    },
    {
      "anonymous": false,
      "inputs": [],
      "name": "VotingEnded",
      "type": "event"
    },
    {
      "anonymous": false,
      "inputs": [
        {
          "indexed": false,
          "internalType": "uint256",
          "name": "endTime",
          "type": "uint256"
        }
      ],
      "name": "VotingStarted",
      "type": "event"
    },
    {
      "inputs": [
        {
          "internalType": "string",
          "name": "_name",
          "type": "string"
        },
        {
          "internalType": "string",
          "name": "_image",
          "type": "string"
        },
        {
          "internalType": "address",
          "name": "_voterAddress",
          "type": "address"
        },
        {
          "internalType": "string",
          "name": "_position",
          "type": "string"
        }
      ],
      "name": "authorizeVoter",
      "outputs": [],
      "stateMutability": "nonpayable",
      "type": "function"
    },
    {
      "inputs": [
        {
          "internalType": "address",
          "name": "",
          "type": "address"
        }
      ],
      "name": "authorizedVoters",
      "outputs": [
        {
          "internalType": "bool",
          "name": "",
          "type": "bool"
        }
      ],
      "stateMutability": "view",
      "type": "function"
    },
    {
      "inputs": [],
      "name": "candidateCount",
      "outputs": [
        {
          "internalType": "uint256",
          "name": "",
          "type": "uint256"
        }
      ],
      "stateMutability": "view",
      "type": "function"
    },
    {
      "inputs": [
        {
          "internalType": "uint256",
          "name": "",
          "type": "uint256"
        }
      ],
      "name": "candidates",
      "outputs": [
        {
          "internalType": "uint256",
          "name": "id",
          "type": "uint256"
        },
        {
          "internalType": "string",
          "name": "name",
          "type": "string"
        },
        {
          "internalType": "string",
          "name": "image",
          "type": "string"
        },
        {
          "internalType": "uint256",
          "name": "voteCount",
          "type": "uint256"
        },
        {
          "internalType": "address",
          "name": "candidateAddress",
          "type": "address"
        },
        {
          "internalType": "uint256",
          "name": "age",
          "type": "uint256"
        },
        {
          "internalType": "bool",
          "name": "exists",
          "type": "bool"
        }
      ],
      "stateMutability": "view",
      "type": "function"
    },
    {
      "inputs": [],
      "name": "endVoting",
      "outputs": [],
      "stateMutability": "nonpayable",
      "type": "function"
    },
    {
      "inputs": [
        {
          "internalType": "uint256",
          "name": "_additionalMinutes",
          "type": "uint256"
        }
      ],
      "name": "extendVoting",
      "outputs": [],
      "stateMutability": "nonpayable",
      "type": "function"
    },
    {
      "inputs": [],
      "name": "getAllCandidates",
      "outputs": [
        {
          "components": [
            {
              "internalType": "uint256",
              "name": "id",
              "type": "uint256"
            },
            {
              "internalType": "string",
              "name": "name",
              "type": "string"
            },
            {
              "internalType": "string",
              "name": "image",
              "type": "string"
            },
            {
              "internalType": "uint256",
              "name": "voteCount",
              "type": "uint256"
            },
            {
              "internalType": "address",
              "name": "candidateAddress",
              "type": "address"
            },
            {
              "internalType": "uint256",
              "name": "age",
              "type": "uint256"
            },
            {
              "internalType": "bool",
              "name": "exists",
              "type": "bool"
            }
          ],
          "internalType": "struct VotingContract.Candidate[]",
          "name": "",
          "type": "tuple[]"
        }
      ],
      "stateMutability": "view",
      "type": "function"
    },
    {
      "inputs": [],
      "name": "getAllVoters",
      "outputs": [
        {
          "components": [
            {
              "internalType": "uint256",
              "name": "id",
              "type": "uint256"
            },
            {
              "internalType": "string",
              "name": "name",
              "type": "string"
            },
            {
              "internalType": "string",
              "name": "image",
              "type": "string"
            },
            {
              "internalType": "address",
              "name": "voterAddress",
              "type": "address"
            },
            {
              "internalType": "string",
              "name": "position",
              "type": "string"
            },
            {
              "internalType": "bool",
              "name": "hasVoted",
              "type": "bool"
            },
            {
              "internalType": "bool",
              "name": "authorized",
              "type": "bool"
            },
            {
              "internalType": "bool",
              "name": "exists",
              "type": "bool"
            }
          ],
          "internalType": "struct VotingContract.Voter[]",
          "name": "",
          "type": "tuple[]"
        }
      ],
      "stateMutability": "view",
      "type": "function"
    },
    {
      "inputs": [
        {
          "internalType": "uint256",
          "name": "_candidateId",
          "type": "uint256"
        }
      ],
      "name": "getCandidate",
      "outputs": [
        {
          "components": [
            {
              "internalType": "uint256",
              "name": "id",
              "type": "uint256"
            },
            {
              "internalType": "string",
              "name": "name",
              "type": "string"
            },
            {
              "internalType": "string",
              "name": "image",
              "type": "string"
            },
            {
              "internalType": "uint256",
              "name": "voteCount",
              "type": "uint256"
            },
            {
              "internalType": "address",
              "name": "candidateAddress",
              "type": "address"
            },
            {
              "internalType": "uint256",
              "name": "age",
              "type": "uint256"
            },
            {
              "internalType": "bool",
              "name": "exists",
              "type": "bool"
            }
          ],
          "internalType": "struct VotingContract.Candidate",
          "name": "",
          "type": "tuple"
        }
      ],
      "stateMutability": "view",
      "type": "function"
    },
    {
      "inputs": [],
      "name": "getTotalVotes",
      "outputs": [
        {
          "internalType": "uint256",
          "name": "",
          "type": "uint256"
        }
      ],
      "stateMutability": "view",
      "type": "function"
    },
    {
      "inputs": [
        {
          "internalType": "uint256",
          "name": "_voterId",
          "type": "uint256"
        }
      ],
      "name": "getVoter",
      "outputs": [
        {
          "components": [
            {
              "internalType": "uint256",
              "name": "id",
              "type": "uint256"
            },
            {
              "internalType": "string",
              "name": "name",
              "type": "string"
            },
            {
              "internalType": "string",
              "name": "image",
              "type": "string"
            },
            {
              "internalType": "address",
              "name": "voterAddress",
              "type": "address"
            },
            {
              "internalType": "string",
              "name": "position",
              "type": "string"
            },
            {
              "internalType": "bool",
              "name": "hasVoted",
              "type": "bool"
            },
            {
              "internalType": "bool",
              "name": "authorized",
              "type": "bool"
            },
            {
              "internalType": "bool",
              "name": "exists",
              "type": "bool"
            }
          ],
          "internalType": "struct VotingContract.Voter",
          "name": "",
          "type": "tuple"
        }
      ],
      "stateMutability": "view",
      "type": "function"
    },
    {
      "inputs": [],
      "name": "getVotingStatus",
      "outputs": [
        {
          "internalType": "bool",
          "name": "active",
          "type": "bool"
        },
        {
          "internalType": "uint256",
          "name": "endTime",
          "type": "uint256"
        },
        {
          "internalType": "uint256",
          "name": "currentTime",
          "type": "uint256"
        }
      ],
      "stateMutability": "view",
      "type": "function"
    },
    {
      "inputs": [],
      "name": "getWinner",
      "outputs": [
        {
          "internalType": "uint256",
          "name": "winnerId",
          "type": "uint256"
        },
        {
          "internalType": "string",
          "name": "winnerName",
          "type": "string"
        },
        {
          "internalType": "uint256",
          "name": "winnerVotes",
          "type": "uint256"
        }
      ],
      "stateMutability": "view",
      "type": "function"
    },
    {
      "inputs": [
        {
          "internalType": "address",
          "name": "",
          "type": "address"
        }
      ],
      "name": "hasVotedMapping",
      "outputs": [
        {
          "internalType": "bool",
          "name": "",
          "type": "bool"
        }
      ],
      "stateMutability": "view",
      "type": "function"
    },
    {
      "inputs": [
        {
          "internalType": "address",
          "name": "_voterAddress",
          "type": "address"
        }
      ],
      "name": "hasVoterVoted",
      "outputs": [
        {
          "internalType": "bool",
          "name": "",
          "type": "bool"
        }
      ],
      "stateMutability": "view",
      "type": "function"
    },
    {
      "inputs": [
        {
          "internalType": "address",
          "name": "_voterAddress",
          "type": "address"
        }
      ],
      "name": "isVoterAuthorized",
      "outputs": [
        {
          "internalType": "bool",
          "name": "",
          "type": "bool"
        }
      ],
      "stateMutability": "view",
      "type": "function"
    },
    {
      "inputs": [],
      "name": "owner",
      "outputs": [
        {
          "internalType": "address",
          "name": "",
          "type": "address"
        }
      ],
      "stateMutability": "view",
      "type": "function"
    },
    {
      "inputs": [
        {
          "internalType": "string",
          "name": "_name",
          "type": "string"
        },
        {
          "internalType": "string",
          "name": "_image",
          "type": "string"
        },
        {
          "internalType": "address",
          "name": "_candidateAddress",
          "type": "address"
        },
        {
          "internalType": "uint256",
          "name": "_age",
          "type": "uint256"
        }
      ],
      "name": "registerCandidate",
      "outputs": [],
      "stateMutability": "nonpayable",
      "type": "function"
    },
    {
      "inputs": [
        {
          "internalType": "uint256",
          "name": "_durationInMinutes",
          "type": "uint256"
        }
      ],
      "name": "startVoting",
      "outputs": [],
      "stateMutability": "nonpayable",
      "type": "function"
    },
    {
      "inputs": [
        {
          "internalType": "uint256",
          "name": "_candidateId",
          "type": "uint256"
        }
      ],
      "name": "vote",
      "outputs": [],
      "stateMutability": "nonpayable",
      "type": "function"
    },
    {
      "inputs": [
        {
          "internalType": "address",
          "name": "",
          "type": "address"
        }
      ],
      "name": "voterAddressToId",
      "outputs": [
        {
          "internalType": "uint256",
          "name": "",
          "type": "uint256"
        }
      ],
      "stateMutability": "view",
      "type": "function"
    },
    {
      "inputs": [],
      "name": "voterCount",
      "outputs": [
        {
          "internalType": "uint256",
          "name": "",
          "type": "uint256"
        }
      ],
      "stateMutability": "view",
      "type": "function"
    },
    {
      "inputs": [
        {
          "internalType": "uint256",
          "name": "",
          "type": "uint256"
        }
      ],
      "name": "voters",
      "outputs": [
        {
          "internalType": "uint256",
          "name": "id",
          "type": "uint256"
        },
        {
          "internalType": "string",
          "name": "name",
          "type": "string"
        },
        {
          "internalType": "string",
          "name": "image",
          "type": "string"
        },
        {
          "internalType": "address",
          "name": "voterAddress",
          "type": "address"
        },
        {
          "internalType": "string",
          "name": "position",
          "type": "string"
        },
        {
          "internalType": "bool",
          "name": "hasVoted",
          "type": "bool"
        },
        {
          "internalType": "bool",
          "name": "authorized",
          "type": "bool"
        },
        {
          "internalType": "bool",
          "name": "exists",
          "type": "bool"
        }
      ],
      "stateMutability": "view",
      "type": "function"
    },
    {
      "inputs": [],
      "name": "votingActive",
      "outputs": [
        {
          "internalType": "bool",
          "name": "",
          "type": "bool"
        }
      ],
      "stateMutability": "view",
      "type": "function"
    },
    {
      "inputs": [],
      "name": "votingEndTime",
      "outputs": [
        {
          "internalType": "uint256",
          "name": "",
          "type": "uint256"
        }
      ],
      "stateMutability": "view",
      "type": "function"
    }
  ],
  "bytecode": "0x608060405234801561001057600080fd5b50600080546001600160a01b031916331781556002805460ff19169055600881905560095561249e806100446000396000f3fe608060405234801561001057600080fd5b50600436106101735760003560e01c806366acfa4a116100de578063a9a981a311610097578063da58c7d911610071578063da58c7d91461038a578063f3e02cf7146103b1578063fd11f97a146103c4578063ff8c0c81146103f057600080fd5b8063a9a981a314610359578063c3403ddf14610362578063d07bff0c1461036a57600080fd5b806366acfa4a146102c6578063691b1c7e146102e95780638da5cb5b146102fc5780638e7ea5b2146103275780639849056c1461033e5780639a0e7d661461035157600080fd5b806335b8e8201161013057806335b8e8201461024057806335bbe70e146102605780633d2f5bda14610275578063408e27271461028857806342169e4814610295578063581c281c1461029e57600080fd5b80630121b93f146101785780630ea21eae1461018d5780631ea736e0146101ce5780631eac8de0146101e55780632e6997fe146102055780633477ee2e1461021a575b600080fd5b61018b610186366004611cb4565b610413565b005b6101b961019b366004611ce9565b6001600160a01b031660009081526006602052604090205460ff1690565b60405190151581526020015b60405180910390f35b6101d760015481565b6040519081526020016101c5565b6101d76101f3366004611ce9565b60056020526000908152604090205481565b61020d610650565b6040516101c59190611dc8565b61022d610228366004611cb4565b61087a565b6040516101c59796959493929190611e2a565b61025361024e366004611cb4565b6109d3565b6040516101c59190611e87565b610268610bb9565b6040516101c59190611f46565b61018b610283366004611cb4565b610e80565b6002546101b99060ff1681565b6101d760095481565b6002546001546040805160ff90931615158352602083019190915242908201526060016101c5565b6101b96102d4366004611ce9565b60066020526000908152604090205460ff1681565b61018b6102f736600461203e565b610ff0565b60005461030f906001600160a01b031681565b6040516001600160a01b0390911681526020016101c5565b61032f6112b0565b6040516101c5939291906120d7565b61018b61034c366004612100565b61142b565b6101d7611670565b6101d760085481565b61018b6116b0565b61037d610378366004611cb4565b611731565b6040516101c5919061217c565b61039d610398366004611cb4565b6119b6565b6040516101c598979695949392919061218f565b61018b6103bf366004611cb4565b611ba8565b6101b96103d2366004611ce9565b6001600160a01b031660009081526007602052604090205460ff1690565b6101b96103fe366004611ce9565b60076020526000908152604090205460ff1681565b3360009081526006602052604090205460ff166104775760405162461bcd60e51b815260206004820152601e60248201527f596f7520617265206e6f7420617574686f72697a656420746f20766f7465000060448201526064015b60405180910390fd5b60025460ff16801561048a575060015442105b6104a65760405162461bcd60e51b815260040161046e90612203565b3360009081526007602052604090205460ff16156104ff5760405162461bcd60e51b8152602060048201526016602482015275165bdd481a185d9948185b1c9958591e481d9bdd195960521b604482015260640161046e565b60008111801561051157506008548111155b6105545760405162461bcd60e51b8152602060048201526014602482015273125b9d985b1a590818d85b991a59185d1948125160621b604482015260640161046e565b60008181526003602052604090206006015460ff166105b55760405162461bcd60e51b815260206004820152601860248201527f43616e64696461746520646f6573206e6f742065786973740000000000000000604482015260640161046e565b336000908152600760209081526040808320805460ff19166001179055600590915290205480156105fd576000818152600460205260409020600501805460ff191660011790555b600082815260036020819052604082200180549161061a83612247565b9091555050604051339083907ff1003b73c437642c0460aee9cd9628b0b8c447b66e6c7c905531b9c644214a1190600090a35050565b6060600060085467ffffffffffffffff81111561066f5761066f611f9b565b6040519080825280602002602001820160405280156106a857816020015b610695611c18565b81526020019060019003908161068d5790505b50905060015b600854811161087457600360008281526020019081526020016000206040518060e0016040529081600082015481526020016001820180546106ef90612260565b80601f016020809104026020016040519081016040528092919081815260200182805461071b90612260565b80156107685780601f1061073d57610100808354040283529160200191610768565b820191906000526020600020905b81548152906001019060200180831161074b57829003601f168201915b5050505050815260200160028201805461078190612260565b80601f01602080910402602001604051908101604052809291908181526020018280546107ad90612260565b80156107fa5780601f106107cf576101008083540402835291602001916107fa565b820191906000526020600020905b8154815290600101906020018083116107dd57829003601f168201915b50505091835250506003820154602082015260048201546001600160a01b031660408201526005820154606082015260069091015460ff16151560809091015282610846600184612294565b81518110610856576108566122ad565b6020026020010181905250808061086c90612247565b9150506106ae565b50919050565b6003602052600090815260409020805460018201805491929161089c90612260565b80601f01602080910402602001604051908101604052809291908181526020018280546108c890612260565b80156109155780601f106108ea57610100808354040283529160200191610915565b820191906000526020600020905b8154815290600101906020018083116108f857829003601f168201915b50505050509080600201805461092a90612260565b80601f016020809104026020016040519081016040528092919081815260200182805461095690612260565b80156109a35780601f10610978576101008083540402835291602001916109a3565b820191906000526020600020905b81548152906001019060200180831161098657829003601f168201915b50505050600383015460048401546005850154600690950154939491936001600160a01b03909116925060ff1687565b6109db611c18565b6000821180156109ed57506008548211155b610a305760405162461bcd60e51b8152602060048201526014602482015273125b9d985b1a590818d85b991a59185d1948125160621b604482015260640161046e565b600360008381526020019081526020016000206040518060e001604052908160008201548152602001600182018054610a6890612260565b80601f0160208091040260200160405190810160405280929190818152602001828054610a9490612260565b8015610ae15780601f10610ab657610100808354040283529160200191610ae1565b820191906000526020600020905b815481529060010190602001808311610ac457829003601f168201915b50505050508152602001600282018054610afa90612260565b80601f0160208091040260200160405190810160405280929190818152602001828054610b2690612260565b8015610b735780601f10610b4857610100808354040283529160200191610b73565b820191906000526020600020905b815481529060010190602001808311610b5657829003601f168201915b50505091835250506003820154602082015260048201546001600160a01b031660408201526005820154606082015260069091015460ff16151560809091015292915050565b6060600060095467ffffffffffffffff811115610bd857610bd8611f9b565b604051908082528060200260200182016040528015610c1157816020015b610bfe611c60565b815260200190600190039081610bf65790505b50905060015b600954811161087457600460008281526020019081526020016000206040518061010001604052908160008201548152602001600182018054610c5990612260565b80601f0160208091040260200160405190810160405280929190818152602001828054610c8590612260565b8015610cd25780601f10610ca757610100808354040283529160200191610cd2565b820191906000526020600020905b815481529060010190602001808311610cb557829003601f168201915b50505050508152602001600282018054610ceb90612260565b80601f0160208091040260200160405190810160405280929190818152602001828054610d1790612260565b8015610d645780601f10610d3957610100808354040283529160200191610d64565b820191906000526020600020905b815481529060010190602001808311610d4757829003601f168201915b505050918352505060038201546001600160a01b03166020820152600482018054604090920191610d9490612260565b80601f0160208091040260200160405190810160405280929190818152602001828054610dc090612260565b8015610e0d5780601f10610de257610100808354040283529160200191610e0d565b820191906000526020600020905b815481529060010190602001808311610df057829003601f168201915b50505091835250506005919091015460ff8082161515602084015261010082048116151560408401526201000090910416151560609091015282610e52600184612294565b81518110610e6257610e626122ad565b60200260200101819052508080610e7890612247565b915050610c17565b6000546001600160a01b03163314610eaa5760405162461bcd60e51b815260040161046e906122c3565b60025460ff1615610efd5760405162461bcd60e51b815260206004820152601860248201527f566f74696e6720697320616c7265616479206163746976650000000000000000604482015260640161046e565b600060085411610f4a5760405162461bcd60e51b8152602060048201526018602482015277139bc818d85b991a59185d195cc81c9959da5cdd195c995960421b604482015260640161046e565b600060095411610f935760405162461bcd60e51b8152602060048201526014602482015273139bc81d9bdd195c9cc8185d5d1a1bdc9a5e995960621b604482015260640161046e565b610f9e81603c612305565b610fa8904261231c565b60018181556002805460ff191690911790556040519081527fcf33babc496bb6dc2942b39cb7b75766bbbadf7da50d176ff8c513e9911402399060200160405180910390a150565b6000546001600160a01b0316331461101a5760405162461bcd60e51b815260040161046e906122c3565b60008451116110625760405162461bcd60e51b81526020600482015260146024820152734e616d652063616e6e6f7420626520656d70747960601b604482015260640161046e565b6001600160a01b0382166110b05760405162461bcd60e51b8152602060048201526015602482015274496e76616c696420766f746572206164647265737360581b604482015260640161046e565b6001600160a01b03821660009081526006602052604090205460ff16156111195760405162461bcd60e51b815260206004820152601860248201527f566f74657220616c726561647920617574686f72697a65640000000000000000604482015260640161046e565b6009805490600061112983612247565b9091555050604080516101008101825260095480825260208083018881528385018890526001600160a01b038716606085015260808401869052600060a08501819052600160c0860181905260e0860181905293815260049092529390208251815592519192919082019061119e908261237e565b50604082015160028201906111b3908261237e565b5060608201516003820180546001600160a01b0319166001600160a01b03909216919091179055608082015160048201906111ee908261237e565b5060a08201516005918201805460c085015160e0909501511515620100000262ff0000199515156101000261ff00199415159490941661ffff1990921691909117929092179390931617909155600980546001600160a01b03851660009081526020938452604080822092909255600690935291829020805460ff191660011790555490517f6512af5e6c1a02060d351226d8e8ac06f9516242003eb7f9dc54ca63b3386385906112a2908790869061243e565b60405180910390a250505050565b60006060600080600854116113025760405162461bcd60e51b8152602060048201526018602482015277139bc818d85b991a59185d195cc81c9959da5cdd195c995960421b604482015260640161046e565b60008060015b60085481116113565760008181526003602081905260409091200154831015611344576000818152600360208190526040909120015492509050805b8061134e81612247565b915050611308565b50801561140e5780600360008381526020019081526020016000206001018381805461138190612260565b80601f01602080910402602001604051908101604052809291908181526020018280546113ad90612260565b80156113fa5780601f106113cf576101008083540402835291602001916113fa565b820191906000526020600020905b8154815290600101906020018083116113dd57829003601f168201915b505050505091509450945094505050909192565b505060408051602081019091526000808252949093508492509050565b6000546001600160a01b031633146114555760405162461bcd60e51b815260040161046e906122c3565b60128110156114b65760405162461bcd60e51b815260206004820152602760248201527f43616e646964617465206d757374206265206174206c65617374203138207965604482015266185c9cc81bdb1960ca1b606482015260840161046e565b60008451116114fe5760405162461bcd60e51b81526020600482015260146024820152734e616d652063616e6e6f7420626520656d70747960601b604482015260640161046e565b6001600160a01b0382166115545760405162461bcd60e51b815260206004820152601960248201527f496e76616c69642063616e646964617465206164647265737300000000000000604482015260640161046e565b6008805490600061156483612247565b90915550506040805160e08101825260085480825260208083018881528385018890526000606085018190526001600160a01b038816608086015260a08501879052600160c086018190529381526003909252939020825181559251919291908201906115d1908261237e565b50604082015160028201906115e6908261237e565b506060820151600382015560808201516004820180546001600160a01b0319166001600160a01b0390921691909117905560a0820151600582015560c0909101516006909101805460ff19169115159190911790556008546040517f4a2b8fc2ad6942aee90121e13dfd713889e03d0b1cbd9c0b708c71e9168d0115906112a2908790869061243e565b60008060015b6008548111610874576000818152600360208190526040909120015461169c908361231c565b9150806116a881612247565b915050611676565b6000546001600160a01b031633146116da5760405162461bcd60e51b815260040161046e906122c3565b60025460ff166116fc5760405162461bcd60e51b815260040161046e90612203565b6002805460ff191690556040517f7a19ed057db79e3c2fa0b97a54b43bef4fce74b31bb6c01af514b9a18a7f70ab90600090a1565b611739611c60565b60008211801561174b57506009548211155b61178a5760405162461bcd60e51b815260206004820152601060248201526f125b9d985b1a59081d9bdd195c88125160821b604482015260640161046e565b6004600083815260200190815260200160002060405180610100016040529081600082015481526020016001820180546117c390612260565b80601f01602080910402602001604051908101604052809291908181526020018280546117ef90612260565b801561183c5780601f106118115761010080835404028352916020019161183c565b820191906000526020600020905b81548152906001019060200180831161181f57829003601f168201915b5050505050815260200160028201805461185590612260565b80601f016020809104026020016040519081016040528092919081815260200182805461188190612260565b80156118ce5780601f106118a3576101008083540402835291602001916118ce565b820191906000526020600020905b8154815290600101906020018083116118b157829003601f168201915b505050918352505060038201546001600160a01b031660208201526004820180546040909201916118fe90612260565b80601f016020809104026020016040519081016040528092919081815260200182805461192a90612260565b80156119775780601f1061194c57610100808354040283529160200191611977565b820191906000526020600020905b81548152906001019060200180831161195a57829003601f168201915b50505091835250506005919091015460ff8082161515602084015261010082048116151560408401526201000090910416151560609091015292915050565b600460205260009081526040902080546001820180549192916119d890612260565b80601f0160208091040260200160405190810160405280929190818152602001828054611a0490612260565b8015611a515780601f10611a2657610100808354040283529160200191611a51565b820191906000526020600020905b815481529060010190602001808311611a3457829003601f168201915b505050505090806002018054611a6690612260565b80601f0160208091040260200160405190810160405280929190818152602001828054611a9290612260565b8015611adf5780601f10611ab457610100808354040283529160200191611adf565b820191906000526020600020905b815481529060010190602001808311611ac257829003601f168201915b505050600384015460048501805494956001600160a01b03909216949193509150611b0990612260565b80601f0160208091040260200160405190810160405280929190818152602001828054611b3590612260565b8015611b825780601f10611b5757610100808354040283529160200191611b82565b820191906000526020600020905b815481529060010190602001808311611b6557829003601f168201915b5050506005909301549192505060ff808216916101008104821691620100009091041688565b6000546001600160a01b03163314611bd25760405162461bcd60e51b815260040161046e906122c3565b60025460ff16611bf45760405162461bcd60e51b815260040161046e90612203565b611bff81603c612305565b60016000828254611c10919061231c565b909155505050565b6040518060e001604052806000815260200160608152602001606081526020016000815260200160006001600160a01b03168152602001600081526020016000151581525090565b60405180610100016040528060008152602001606081526020016060815260200160006001600160a01b03168152602001606081526020016000151581526020016000151581526020016000151581525090565b600060208284031215611cc657600080fd5b5035919050565b80356001600160a01b0381168114611ce457600080fd5b919050565b600060208284031215611cfb57600080fd5b611d0482611ccd565b9392505050565b6000815180845260005b81811015611d3157602081850181015186830182015201611d15565b506000602082860101526020601f19601f83011685010191505092915050565b805182526000602082015160e06020850152611d7060e0850182611d0b565b905060408301518482036040860152611d898282611d0b565b606085810151908701526080808601516001600160a01b03169087015260a0808601519087015260c09485015115159490950193909352509192915050565b6000602080830181845280855180835260408601915060408160051b870101925083870160005b82811015611e1d57603f19888603018452611e0b858351611d51565b94509285019290850190600101611def565b5092979650505050505050565b87815260e060208201526000611e4360e0830189611d0b565b8281036040840152611e558189611d0b565b606084019790975250506001600160a01b0393909316608084015260a0830191909152151560c0909101529392505050565b602081526000611d046020830184611d51565b6000610100825184526020830151816020860152611eba82860182611d0b565b91505060408301518482036040860152611ed48282611d0b565b91505060018060a01b03606084015116606085015260808301518482036080860152611f008282611d0b565b91505060a0830151611f1660a086018215159052565b5060c0830151611f2a60c086018215159052565b5060e0830151611f3e60e086018215159052565b509392505050565b6000602080830181845280855180835260408601915060408160051b870101925083870160005b82811015611e1d57603f19888603018452611f89858351611e9a565b94509285019290850190600101611f6d565b634e487b7160e01b600052604160045260246000fd5b600082601f830112611fc257600080fd5b813567ffffffffffffffff80821115611fdd57611fdd611f9b565b604051601f8301601f19908116603f0116810190828211818310171561200557612005611f9b565b8160405283815286602085880101111561201e57600080fd5b836020870160208301376000602085830101528094505050505092915050565b6000806000806080858703121561205457600080fd5b843567ffffffffffffffff8082111561206c57600080fd5b61207888838901611fb1565b9550602087013591508082111561208e57600080fd5b61209a88838901611fb1565b94506120a860408801611ccd565b935060608701359150808211156120be57600080fd5b506120cb87828801611fb1565b91505092959194509250565b8381526060602082015260006120f06060830185611d0b565b9050826040830152949350505050565b6000806000806080858703121561211657600080fd5b843567ffffffffffffffff8082111561212e57600080fd5b61213a88838901611fb1565b9550602087013591508082111561215057600080fd5b5061215d87828801611fb1565b93505061216c60408601611ccd565b9396929550929360600135925050565b602081526000611d046020830184611e9a565b60006101008a83528060208401526121a98184018b611d0b565b905082810360408401526121bd818a611d0b565b6001600160a01b0389166060850152838103608085015290506121e08188611d0b565b95151560a0840152505091151560c0830152151560e09091015295945050505050565b602080825260149082015273566f74696e67206973206e6f742061637469766560601b604082015260600190565b634e487b7160e01b600052601160045260246000fd5b60006001820161225957612259612231565b5060010190565b600181811c9082168061227457607f821691505b60208210810361087457634e487b7160e01b600052602260045260246000fd5b818103818111156122a7576122a7612231565b92915050565b634e487b7160e01b600052603260045260246000fd5b60208082526022908201527f4f6e6c79206f776e65722063616e20706572666f726d2074686973206163746960408201526137b760f11b606082015260800190565b80820281158282048414176122a7576122a7612231565b808201808211156122a7576122a7612231565b601f82111561237957600081815260208120601f850160051c810160208610156123565750805b601f850160051c820191505b8181101561237557828155600101612362565b5050505b505050565b815167ffffffffffffffff81111561239857612398611f9b565b6123ac816123a68454612260565b8461232f565b602080601f8311600181146123e157600084156123c95750858301515b600019600386901b1c1916600185901b178555612375565b600085815260208120601f198616915b82811015612410578886015182559484019460019091019084016123f1565b508582101561242e5787850151600019600388901b60f8161c191681555b5050505050600190811b01905550565b6040815260006124516040830185611d0b565b905060018060a01b0383166020830152939250505056fea26469706673582212203eb729fe7bb3ad7889957391c73ebda6f5d202ebddd2446a2a8d81aaf45e221964736f6c63430008130033",
  "linkReferences": {},
  "deployedLinkReferences": {}
}